{
  "contractName": "CrowdFunding",
  "abi": [
    {
      "inputs": [
        {
          "internalType": "uint256",
          "name": "_goal",
          "type": "uint256"
        },
        {
          "internalType": "uint256",
          "name": "_deadline",
          "type": "uint256"
        },
        {
          "internalType": "address",
          "name": "eoa",
          "type": "address"
        }
      ],
      "stateMutability": "nonpayable",
      "type": "constructor"
    },
    {
      "anonymous": false,
      "inputs": [
        {
          "indexed": false,
          "internalType": "address",
          "name": "_sender",
          "type": "address"
        },
        {
          "indexed": false,
          "internalType": "uint256",
          "name": "_value",
          "type": "uint256"
        }
      ],
      "name": "ContributeEvent",
      "type": "event"
    },
    {
      "anonymous": false,
      "inputs": [
        {
          "indexed": false,
          "internalType": "uint256",
          "name": "_value",
          "type": "uint256"
        }
      ],
      "name": "fundsWithdrawn",
      "type": "event"
    },
    {
      "inputs": [],
      "name": "admin",
      "outputs": [
        {
          "internalType": "address payable",
          "name": "",
          "type": "address"
        }
      ],
      "stateMutability": "view",
      "type": "function"
    },
    {
      "inputs": [
        {
          "internalType": "address",
          "name": "",
          "type": "address"
        }
      ],
      "name": "contributors",
      "outputs": [
        {
          "internalType": "uint256",
          "name": "",
          "type": "uint256"
        }
      ],
      "stateMutability": "view",
      "type": "function"
    },
    {
      "inputs": [],
      "name": "deadline",
      "outputs": [
        {
          "internalType": "uint256",
          "name": "",
          "type": "uint256"
        }
      ],
      "stateMutability": "view",
      "type": "function"
    },
    {
      "inputs": [],
      "name": "goal",
      "outputs": [
        {
          "internalType": "uint256",
          "name": "",
          "type": "uint256"
        }
      ],
      "stateMutability": "view",
      "type": "function"
    },
    {
      "inputs": [],
      "name": "minimumContribution",
      "outputs": [
        {
          "internalType": "uint256",
          "name": "",
          "type": "uint256"
        }
      ],
      "stateMutability": "view",
      "type": "function"
    },
    {
      "inputs": [],
      "name": "numberOfContributors",
      "outputs": [
        {
          "internalType": "uint256",
          "name": "",
          "type": "uint256"
        }
      ],
      "stateMutability": "view",
      "type": "function"
    },
    {
      "inputs": [],
      "name": "raisedAmount",
      "outputs": [
        {
          "internalType": "uint256",
          "name": "",
          "type": "uint256"
        }
      ],
      "stateMutability": "view",
      "type": "function"
    },
    {
      "stateMutability": "payable",
      "type": "receive"
    },
    {
      "inputs": [],
      "name": "contribute",
      "outputs": [],
      "stateMutability": "payable",
      "type": "function"
    },
    {
      "inputs": [],
      "name": "getBalance",
      "outputs": [
        {
          "internalType": "uint256",
          "name": "",
          "type": "uint256"
        }
      ],
      "stateMutability": "view",
      "type": "function"
    },
    {
      "inputs": [],
      "name": "withdrawFunds",
      "outputs": [],
      "stateMutability": "nonpayable",
      "type": "function"
    }
  ],
  "bytecode": "0x60806040523480156200001157600080fd5b5060405162000be738038062000be78339818101604052810190620000379190620000e7565b670de0b6b3a7640000836200004d9190620001a0565b600581905550814262000061919062000143565b60048190555080600160006101000a81548173ffffffffffffffffffffffffffffffffffffffff021916908373ffffffffffffffffffffffffffffffffffffffff1602179055506064600381905550505050620002a7565b600081519050620000ca8162000273565b92915050565b600081519050620000e1816200028d565b92915050565b6000806000606084860312156200010357620001026200026e565b5b60006200011386828701620000d0565b93505060206200012686828701620000d0565b92505060406200013986828701620000b9565b9150509250925092565b6000620001508262000235565b91506200015d8362000235565b9250827fffffffffffffffffffffffffffffffffffffffffffffffffffffffffffffffff038211156200019557620001946200023f565b5b828201905092915050565b6000620001ad8262000235565b9150620001ba8362000235565b9250817fffffffffffffffffffffffffffffffffffffffffffffffffffffffffffffffff0483118215151615620001f657620001f56200023f565b5b828202905092915050565b60006200020e8262000215565b9050919050565b600073ffffffffffffffffffffffffffffffffffffffff82169050919050565b6000819050919050565b7f4e487b7100000000000000000000000000000000000000000000000000000000600052601160045260246000fd5b600080fd5b6200027e8162000201565b81146200028a57600080fd5b50565b620002988162000235565b8114620002a457600080fd5b50565b61093080620002b76000396000f3fe6080604052600436106100955760003560e01c80634377cf65116100595780634377cf651461017e578063937e09b1146101a9578063c59ee1dc146101d4578063d7bb99ba146101ff578063f851a44014610209576100a4565b806312065fe0146100a95780631f6d4942146100d457806324600fc31461011157806329dcb0cf146101285780634019388314610153576100a4565b366100a4576100a2610234565b005b600080fd5b3480156100b557600080fd5b506100be6103c6565b6040516100cb91906106f5565b60405180910390f35b3480156100e057600080fd5b506100fb60048036038101906100f6919061058e565b6103ce565b60405161010891906106f5565b60405180910390f35b34801561011d57600080fd5b506101266103e6565b005b34801561013457600080fd5b5061013d610535565b60405161014a91906106f5565b60405180910390f35b34801561015f57600080fd5b5061016861053b565b60405161017591906106f5565b60405180910390f35b34801561018a57600080fd5b50610193610541565b6040516101a091906106f5565b60405180910390f35b3480156101b557600080fd5b506101be610547565b6040516101cb91906106f5565b60405180910390f35b3480156101e057600080fd5b506101e961054d565b6040516101f691906106f5565b60405180910390f35b610207610234565b005b34801561021557600080fd5b5061021e610553565b60405161022b9190610651565b60405180910390f35b6004544210610278576040517f08c379a000000000000000000000000000000000000000000000000000000000815260040161026f906106d5565b60405180910390fd5b6003543410156102bd576040517f08c379a00000000000000000000000000000000000000000000000000000000081526004016102b490610695565b60405180910390fd5b60008060003373ffffffffffffffffffffffffffffffffffffffff1673ffffffffffffffffffffffffffffffffffffffff16815260200190815260200160002054141561031d5760026000815480929190610317906107c5565b91905055505b346000803373ffffffffffffffffffffffffffffffffffffffff1673ffffffffffffffffffffffffffffffffffffffff168152602001908152602001600020600082825461036b9190610721565b9250508190555034600660008282546103849190610721565b925050819055507f2daf61dec57a2c194e9e87958b1a40a5c236b5e8c6041655d664ddbd16c2932033346040516103bc92919061066c565b60405180910390a1565b600047905090565b60006020528060005260406000206000915090505481565b600160009054906101000a900473ffffffffffffffffffffffffffffffffffffffff1673ffffffffffffffffffffffffffffffffffffffff163373ffffffffffffffffffffffffffffffffffffffff1614610476576040517f08c379a000000000000000000000000000000000000000000000000000000000815260040161046d906106b5565b60405180910390fd5b600554600654101561048757600080fd5b600160009054906101000a900473ffffffffffffffffffffffffffffffffffffffff1673ffffffffffffffffffffffffffffffffffffffff166108fc6006549081150290604051600060405180830381858888f193505050501580156104f1573d6000803e3d6000fd5b507f1bfef580145c4435e8f8cc555d0bdfe9eef366f703955596483d8da0bfa0a90e60065460405161052391906106f5565b60405180910390a16000600681905550565b60045481565b60055481565b60025481565b60035481565b60065481565b600160009054906101000a900473ffffffffffffffffffffffffffffffffffffffff1681565b600081359050610588816108e3565b92915050565b6000602082840312156105a4576105a361083d565b5b60006105b284828501610579565b91505092915050565b6105c481610789565b82525050565b6105d381610777565b82525050565b60006105e6601d83610710565b91506105f182610842565b602082019050919050565b6000610609602283610710565b91506106148261086b565b604082019050919050565b600061062c601483610710565b9150610637826108ba565b602082019050919050565b61064b816107bb565b82525050565b600060208201905061066660008301846105bb565b92915050565b600060408201905061068160008301856105ca565b61068e6020830184610642565b9392505050565b600060208201905081810360008301526106ae816105d9565b9050919050565b600060208201905081810360008301526106ce816105fc565b9050919050565b600060208201905081810360008301526106ee8161061f565b9050919050565b600060208201905061070a6000830184610642565b92915050565b600082825260208201905092915050565b600061072c826107bb565b9150610737836107bb565b9250827fffffffffffffffffffffffffffffffffffffffffffffffffffffffffffffffff0382111561076c5761076b61080e565b5b828201905092915050565b60006107828261079b565b9050919050565b60006107948261079b565b9050919050565b600073ffffffffffffffffffffffffffffffffffffffff82169050919050565b6000819050919050565b60006107d0826107bb565b91507fffffffffffffffffffffffffffffffffffffffffffffffffffffffffffffffff8214156108035761080261080e565b5b600182019050919050565b7f4e487b7100000000000000000000000000000000000000000000000000000000600052601160045260246000fd5b600080fd5b7f4d696e696d756d20436f6e747269627574696f6e204e6f74204d657421000000600082015250565b7f4f6e6c792041646d696e2043616e2043616c6c20546869732046756e6374696f60008201527f6e21000000000000000000000000000000000000000000000000000000000000602082015250565b7f646561646c696e65206861732070617373656421000000000000000000000000600082015250565b6108ec81610777565b81146108f757600080fd5b5056fea264697066735822122000405ca66b49b3d730b8498de464f59c5c32d01f632124930d37e1f015cb688464736f6c63430008060033",
  "immutableReferences": {},
  "source": "// SPDX-License-Identifier: MIT\n\npragma solidity >=0.6.0 <0.9.0;\n\ncontract FundingCreator {\n    mapping(uint => CrowdFunding) public fundings;\n    uint fundingindex = 0;\n    event FundraiserCreated(uint fundraiserIndex);\n\n    function createFunding(uint inputGoal, uint inputDeadline) public {\n        CrowdFunding newFunding = new CrowdFunding(inputGoal, inputDeadline, msg.sender);\n        fundingindex = fundingindex + 1;\n        fundings[fundingindex] = newFunding;\n        emit FundraiserCreated(fundingindex);\n    }\n\n     function getFundingContract(uint _fundingindex) public view returns (uint) {\n        CrowdFunding funding = fundings[_fundingindex];\n        return funding.goal();\n    }\n\n     function getFundingContractAddress(uint _fundingindex) public view returns (address) {\n        CrowdFunding funding = fundings[_fundingindex];\n        return address(funding);\n    }\n}\n\ncontract CrowdFunding {\n    \n    mapping(address => uint) public contributors;\n    \n    address payable public admin;\n    uint public numberOfContributors;\n    uint public minimumContribution;\n    uint public deadline;\n    uint public goal;\n    uint public raisedAmount;\n\n    \n    event ContributeEvent(address _sender, uint _value);\n    event fundsWithdrawn( uint _value);\n\n    \n    constructor(uint _goal, uint _deadline, address eoa)  {\n        goal = _goal * (1 ether);\n        deadline = block.timestamp + _deadline;\n        admin = payable(eoa);\n        \n        minimumContribution = 100 wei;\n    }\n    \n    function contribute() public payable {\n        require(block.timestamp < deadline, \"deadline has passed!\");\n        require(msg.value >= minimumContribution, \"Minimum Contribution Not Met!\");\n        \n        // payable(address(this)).transfer(msg.value);\n\n        if(contributors[msg.sender] == 0){  \n            numberOfContributors++;\n            } \n            \n        contributors[msg.sender] += msg.value;\n      \n        raisedAmount += msg.value;\n        emit ContributeEvent(msg.sender , msg.value);\n     }\n     \n    receive() payable external {\n        contribute();\n    }\n    \n    function getBalance() public view returns(uint){\n        return address(this).balance;\n    }\n    \n\n        modifier onlyAdmin() {\n        require(msg.sender == admin,\"Only Admin Can Call This Function!\");\n        _;\n    }\n    \n    function withdrawFunds() public onlyAdmin{\n        require(raisedAmount >= goal);\n        admin.transfer(raisedAmount);\n        emit fundsWithdrawn(raisedAmount);\n        raisedAmount = 0;\n    }\n    \n}",
  "sourcePath": "C:/Users/yash/Desktop/mangoshake/contracts/mangoshake.sol",
  "compiler": {
    "name": "solc",
    "version": "0.8.6+commit.11564f7e.Emscripten.clang"
  },
  "schemaVersion": "3.4.1",
  "updatedAt": "2021-07-15T18:31:51.761Z",
  "devdoc": {
    "kind": "dev",
    "methods": {},
    "version": 1
  },
  "userdoc": {
    "kind": "user",
    "methods": {},
    "version": 1
  }
}