{
  "contractName": "FundingCreator",
  "abi": [
    {
      "anonymous": false,
      "inputs": [
        {
          "indexed": false,
          "internalType": "uint256",
          "name": "fundraiserIndex",
          "type": "uint256"
        }
      ],
      "name": "FundraiserCreated",
      "type": "event"
    },
    {
      "inputs": [
        {
          "internalType": "uint256",
          "name": "",
          "type": "uint256"
        }
      ],
      "name": "fundings",
      "outputs": [
        {
          "internalType": "contract CrowdFunding",
          "name": "",
          "type": "address"
        }
      ],
      "stateMutability": "view",
      "type": "function"
    },
    {
      "inputs": [
        {
          "internalType": "uint256",
          "name": "inputGoal",
          "type": "uint256"
        },
        {
          "internalType": "uint256",
          "name": "inputDeadline",
          "type": "uint256"
        },
        {
          "internalType": "string",
          "name": "DataHash",
          "type": "string"
        }
      ],
      "name": "createFunding",
      "outputs": [],
      "stateMutability": "nonpayable",
      "type": "function"
    },
    {
      "inputs": [
        {
          "internalType": "uint256",
          "name": "_fundingindex",
          "type": "uint256"
        }
      ],
      "name": "getFundingContract",
      "outputs": [
        {
          "internalType": "uint256",
          "name": "",
          "type": "uint256"
        }
      ],
      "stateMutability": "view",
      "type": "function"
    },
    {
      "inputs": [
        {
          "internalType": "uint256",
          "name": "_fundingindex",
          "type": "uint256"
        }
      ],
      "name": "getFundingContractAddress",
      "outputs": [
        {
          "internalType": "address",
          "name": "",
          "type": "address"
        }
      ],
      "stateMutability": "view",
      "type": "function"
    }
  ],
  "bytecode": "0x6080604052600060015534801561001557600080fd5b5061180f806100256000396000f3fe60806040523480156200001157600080fd5b5060043610620000525760003560e01c806326ab263d1462000057578063c9f54eac1462000077578063d13cb1fb14620000ad578063d76d1cf514620000e3575b600080fd5b6200007560048036038101906200006f91906200043e565b62000119565b005b6200009560048036038101906200008f9190620003da565b62000209565b604051620000a491906200055e565b60405180910390f35b620000cb6004803603810190620000c59190620003da565b620002cb565b604051620000da919062000541565b60405180910390f35b620001016004803603810190620000fb9190620003da565b620002fe565b60405162000110919062000524565b60405180910390f35b600084848484336040516200012e906200033f565b6200013e9594939291906200057b565b604051809103906000f0801580156200015b573d6000803e3d6000fd5b509050600180546200016e9190620005e2565b60018190555080600080600154815260200190815260200160002060006101000a81548173ffffffffffffffffffffffffffffffffffffffff021916908373ffffffffffffffffffffffffffffffffffffffff1602179055507f903e35a49fabbc528fc47ddc698f49f9fc2a011afa73dc3c0c5d44a72ba986ab600154604051620001fa91906200055e565b60405180910390a15050505050565b60008060008084815260200190815260200160002060009054906101000a900473ffffffffffffffffffffffffffffffffffffffff1690508073ffffffffffffffffffffffffffffffffffffffff1663401938836040518163ffffffff1660e01b815260040160206040518083038186803b1580156200028857600080fd5b505afa1580156200029d573d6000803e3d6000fd5b505050506040513d601f19601f82011682018060405250810190620002c391906200040c565b915050919050565b60006020528060005260406000206000915054906101000a900473ffffffffffffffffffffffffffffffffffffffff1681565b60008060008084815260200190815260200160002060009054906101000a900473ffffffffffffffffffffffffffffffffffffffff16905080915050919050565b6110b2806200072883390190565b60008083601f840112620003665762000365620006e8565b5b8235905067ffffffffffffffff811115620003865762000385620006e3565b5b602083019150836001820283011115620003a557620003a4620006ed565b5b9250929050565b600081359050620003bd816200070d565b92915050565b600081519050620003d4816200070d565b92915050565b600060208284031215620003f357620003f2620006f7565b5b60006200040384828501620003ac565b91505092915050565b600060208284031215620004255762000424620006f7565b5b60006200043584828501620003c3565b91505092915050565b600080600080606085870312156200045b576200045a620006f7565b5b60006200046b87828801620003ac565b94505060206200047e87828801620003ac565b935050604085013567ffffffffffffffff811115620004a257620004a1620006f2565b5b620004b0878288016200034d565b925092505092959194509250565b620004c9816200063f565b82525050565b620004da816200067d565b82525050565b6000620004ee8385620005d1565b9350620004fd838584620006a5565b6200050883620006fc565b840190509392505050565b6200051e8162000673565b82525050565b60006020820190506200053b6000830184620004be565b92915050565b6000602082019050620005586000830184620004cf565b92915050565b600060208201905062000575600083018462000513565b92915050565b600060808201905062000592600083018862000513565b620005a1602083018762000513565b8181036040830152620005b6818587620004e0565b9050620005c76060830184620004be565b9695505050505050565b600082825260208201905092915050565b6000620005ef8262000673565b9150620005fc8362000673565b9250827fffffffffffffffffffffffffffffffffffffffffffffffffffffffffffffffff03821115620006345762000633620006b4565b5b828201905092915050565b60006200064c8262000653565b9050919050565b600073ffffffffffffffffffffffffffffffffffffffff82169050919050565b6000819050919050565b60006200068a8262000691565b9050919050565b60006200069e8262000653565b9050919050565b82818337600083830152505050565b7f4e487b7100000000000000000000000000000000000000000000000000000000600052601160045260246000fd5b600080fd5b600080fd5b600080fd5b600080fd5b600080fd5b6000601f19601f8301169050919050565b620007188162000673565b81146200072457600080fd5b5056fe60806040523480156200001157600080fd5b50604051620010b2380380620010b283398181016040528101906200003791906200022f565b670de0b6b3a7640000846200004d91906200037c565b60058190555082426200006191906200031f565b60048190555080600160006101000a81548173ffffffffffffffffffffffffffffffffffffffff021916908373ffffffffffffffffffffffffffffffffffffffff1602179055508160079080519060200190620000c0929190620000d3565b50606460038190555050505050620005a3565b828054620000e19062000451565b90600052602060002090601f01602090048101928262000105576000855562000151565b82601f106200012057805160ff191683800117855562000151565b8280016001018555821562000151579182015b828111156200015057825182559160200191906001019062000133565b5b50905062000160919062000164565b5090565b5b808211156200017f57600081600090555060010162000165565b5090565b60006200019a6200019484620002e9565b620002c0565b905082815260208101848484011115620001b957620001b86200054f565b5b620001c68482856200041b565b509392505050565b600081519050620001df816200056f565b92915050565b600082601f830112620001fd57620001fc6200054a565b5b81516200020f84826020860162000183565b91505092915050565b600081519050620002298162000589565b92915050565b600080600080608085870312156200024c576200024b62000559565b5b60006200025c8782880162000218565b94505060206200026f8782880162000218565b935050604085015167ffffffffffffffff81111562000293576200029262000554565b5b620002a187828801620001e5565b9250506060620002b487828801620001ce565b91505092959194509250565b6000620002cc620002df565b9050620002da828262000487565b919050565b6000604051905090565b600067ffffffffffffffff8211156200030757620003066200051b565b5b62000312826200055e565b9050602081019050919050565b60006200032c8262000411565b9150620003398362000411565b9250827fffffffffffffffffffffffffffffffffffffffffffffffffffffffffffffffff03821115620003715762000370620004bd565b5b828201905092915050565b6000620003898262000411565b9150620003968362000411565b9250817fffffffffffffffffffffffffffffffffffffffffffffffffffffffffffffffff0483118215151615620003d257620003d1620004bd565b5b828202905092915050565b6000620003ea82620003f1565b9050919050565b600073ffffffffffffffffffffffffffffffffffffffff82169050919050565b6000819050919050565b60005b838110156200043b5780820151818401526020810190506200041e565b838111156200044b576000848401525b50505050565b600060028204905060018216806200046a57607f821691505b60208210811415620004815762000480620004ec565b5b50919050565b62000492826200055e565b810181811067ffffffffffffffff82111715620004b457620004b36200051b565b5b80604052505050565b7f4e487b7100000000000000000000000000000000000000000000000000000000600052601160045260246000fd5b7f4e487b7100000000000000000000000000000000000000000000000000000000600052602260045260246000fd5b7f4e487b7100000000000000000000000000000000000000000000000000000000600052604160045260246000fd5b600080fd5b600080fd5b600080fd5b600080fd5b6000601f19601f8301169050919050565b6200057a81620003dd565b81146200058657600080fd5b50565b620005948162000411565b8114620005a057600080fd5b50565b610aff80620005b36000396000f3fe6080604052600436106100a05760003560e01c80634377cf65116100645780634377cf651461018957806373d4a13a146101b4578063937e09b1146101df578063c59ee1dc1461020a578063d7bb99ba14610235578063f851a4401461023f576100af565b806312065fe0146100b45780631f6d4942146100df57806324600fc31461011c57806329dcb0cf14610133578063401938831461015e576100af565b366100af576100ad61026a565b005b600080fd5b3480156100c057600080fd5b506100c96103fc565b6040516100d69190610814565b60405180910390f35b3480156100eb57600080fd5b5061010660048036038101906101019190610652565b610404565b6040516101139190610814565b60405180910390f35b34801561012857600080fd5b5061013161041c565b005b34801561013f57600080fd5b5061014861056b565b6040516101559190610814565b60405180910390f35b34801561016a57600080fd5b50610173610571565b6040516101809190610814565b60405180910390f35b34801561019557600080fd5b5061019e610577565b6040516101ab9190610814565b60405180910390f35b3480156101c057600080fd5b506101c961057d565b6040516101d69190610792565b60405180910390f35b3480156101eb57600080fd5b506101f461060b565b6040516102019190610814565b60405180910390f35b34801561021657600080fd5b5061021f610611565b60405161022c9190610814565b60405180910390f35b61023d61026a565b005b34801561024b57600080fd5b50610254610617565b604051610261919061074e565b60405180910390f35b60045442106102ae576040517f08c379a00000000000000000000000000000000000000000000000000000000081526004016102a5906107f4565b60405180910390fd5b6003543410156102f3576040517f08c379a00000000000000000000000000000000000000000000000000000000081526004016102ea906107b4565b60405180910390fd5b60008060003373ffffffffffffffffffffffffffffffffffffffff1673ffffffffffffffffffffffffffffffffffffffff168152602001908152602001600020541415610353576002600081548092919061034d90610954565b91905055505b346000803373ffffffffffffffffffffffffffffffffffffffff1673ffffffffffffffffffffffffffffffffffffffff16815260200190815260200160002060008282546103a1919061084b565b9250508190555034600660008282546103ba919061084b565b925050819055507f2daf61dec57a2c194e9e87958b1a40a5c236b5e8c6041655d664ddbd16c2932033346040516103f2929190610769565b60405180910390a1565b600047905090565b60006020528060005260406000206000915090505481565b600160009054906101000a900473ffffffffffffffffffffffffffffffffffffffff1673ffffffffffffffffffffffffffffffffffffffff163373ffffffffffffffffffffffffffffffffffffffff16146104ac576040517f08c379a00000000000000000000000000000000000000000000000000000000081526004016104a3906107d4565b60405180910390fd5b60055460065410156104bd57600080fd5b600160009054906101000a900473ffffffffffffffffffffffffffffffffffffffff1673ffffffffffffffffffffffffffffffffffffffff166108fc6006549081150290604051600060405180830381858888f19350505050158015610527573d6000803e3d6000fd5b507f1bfef580145c4435e8f8cc555d0bdfe9eef366f703955596483d8da0bfa0a90e6006546040516105599190610814565b60405180910390a16000600681905550565b60045481565b60055481565b60025481565b6007805461058a90610922565b80601f01602080910402602001604051908101604052809291908181526020018280546105b690610922565b80156106035780601f106105d857610100808354040283529160200191610603565b820191906000526020600020905b8154815290600101906020018083116105e657829003601f168201915b505050505081565b60035481565b60065481565b600160009054906101000a900473ffffffffffffffffffffffffffffffffffffffff1681565b60008135905061064c81610ab2565b92915050565b600060208284031215610668576106676109fb565b5b60006106768482850161063d565b91505092915050565b610688816108b3565b82525050565b610697816108a1565b82525050565b60006106a88261082f565b6106b2818561083a565b93506106c28185602086016108ef565b6106cb81610a00565b840191505092915050565b60006106e3601d8361083a565b91506106ee82610a11565b602082019050919050565b600061070660228361083a565b915061071182610a3a565b604082019050919050565b600061072960148361083a565b915061073482610a89565b602082019050919050565b610748816108e5565b82525050565b6000602082019050610763600083018461067f565b92915050565b600060408201905061077e600083018561068e565b61078b602083018461073f565b9392505050565b600060208201905081810360008301526107ac818461069d565b905092915050565b600060208201905081810360008301526107cd816106d6565b9050919050565b600060208201905081810360008301526107ed816106f9565b9050919050565b6000602082019050818103600083015261080d8161071c565b9050919050565b6000602082019050610829600083018461073f565b92915050565b600081519050919050565b600082825260208201905092915050565b6000610856826108e5565b9150610861836108e5565b9250827fffffffffffffffffffffffffffffffffffffffffffffffffffffffffffffffff038211156108965761089561099d565b5b828201905092915050565b60006108ac826108c5565b9050919050565b60006108be826108c5565b9050919050565b600073ffffffffffffffffffffffffffffffffffffffff82169050919050565b6000819050919050565b60005b8381101561090d5780820151818401526020810190506108f2565b8381111561091c576000848401525b50505050565b6000600282049050600182168061093a57607f821691505b6020821081141561094e5761094d6109cc565b5b50919050565b600061095f826108e5565b91507fffffffffffffffffffffffffffffffffffffffffffffffffffffffffffffffff8214156109925761099161099d565b5b600182019050919050565b7f4e487b7100000000000000000000000000000000000000000000000000000000600052601160045260246000fd5b7f4e487b7100000000000000000000000000000000000000000000000000000000600052602260045260246000fd5b600080fd5b6000601f19601f8301169050919050565b7f4d696e696d756d20436f6e747269627574696f6e204e6f74204d657421000000600082015250565b7f4f6e6c792041646d696e2043616e2043616c6c20546869732046756e6374696f60008201527f6e21000000000000000000000000000000000000000000000000000000000000602082015250565b7f646561646c696e65206861732070617373656421000000000000000000000000600082015250565b610abb816108a1565b8114610ac657600080fd5b5056fea2646970667358221220fcc21f37a4173191096b302d76783cd09ede38b1cc37906fccd61daa7ad950c064736f6c63430008060033a2646970667358221220378698b80a673256ff9fdf564c1c42563ad61f7eeb354ea6f0bb86d8173636e264736f6c63430008060033",
  "immutableReferences": {},
  "source": "// SPDX-License-Identifier: MIT\r\n\r\npragma solidity >=0.6.0 <0.9.0;\r\n\r\ncontract FundingCreator {\r\n    mapping(uint => CrowdFunding) public fundings;\r\n    uint fundingindex = 0;\r\n    event FundraiserCreated(uint fundraiserIndex);\r\n\r\n    function createFunding(uint inputGoal, uint inputDeadline , string calldata DataHash) public {\r\n        CrowdFunding newFunding = new CrowdFunding(inputGoal, inputDeadline, DataHash , msg.sender);\r\n        fundingindex = fundingindex + 1;\r\n        fundings[fundingindex] = newFunding;\r\n        emit FundraiserCreated(fundingindex);\r\n    }\r\n\r\n     function getFundingContract(uint _fundingindex) public view returns (uint) {\r\n        CrowdFunding funding = fundings[_fundingindex];\r\n        return funding.goal();\r\n    }\r\n\r\n     function getFundingContractAddress(uint _fundingindex) public view returns (address) {\r\n        CrowdFunding funding = fundings[_fundingindex];\r\n        return address(funding);\r\n    }\r\n}\r\n\r\ncontract CrowdFunding {\r\n    \r\n    mapping(address => uint) public contributors;\r\n    \r\n    address payable public admin;\r\n    uint public numberOfContributors;\r\n    uint public minimumContribution;\r\n    uint public deadline;\r\n    uint public goal;\r\n    uint public raisedAmount;\r\n    string public data;\r\n    \r\n    event ContributeEvent(address _sender, uint _value);\r\n    event fundsWithdrawn( uint _value);\r\n\r\n    \r\n    constructor(uint _goal, uint _deadline, string memory  _dataHash , address eoa)  {\r\n        goal = _goal * (1 ether);\r\n        deadline = block.timestamp + _deadline;\r\n        admin = payable(eoa);\r\n        data = _dataHash;\r\n        \r\n        minimumContribution = 100 wei;\r\n    }\r\n    \r\n    function contribute() public payable {\r\n        require(block.timestamp < deadline, \"deadline has passed!\");\r\n        require(msg.value >= minimumContribution, \"Minimum Contribution Not Met!\");\r\n        \r\n        // payable(address(this)).transfer(msg.value);\r\n\r\n        if(contributors[msg.sender] == 0){  \r\n            numberOfContributors++;\r\n            } \r\n            \r\n        contributors[msg.sender] += msg.value;\r\n      \r\n        raisedAmount += msg.value;\r\n        emit ContributeEvent(msg.sender , msg.value);\r\n     }\r\n     \r\n    receive() payable external {\r\n        contribute();\r\n    }\r\n    \r\n    function getBalance() public view returns(uint){\r\n        return address(this).balance;\r\n    }\r\n    \r\n\r\n        modifier onlyAdmin() {\r\n        require(msg.sender == admin,\"Only Admin Can Call This Function!\");\r\n        _;\r\n    }\r\n    \r\n    function withdrawFunds() public onlyAdmin{\r\n        require(raisedAmount >= goal);\r\n        admin.transfer(raisedAmount);\r\n        emit fundsWithdrawn(raisedAmount);\r\n        raisedAmount = 0;\r\n    }\r\n    \r\n}",
  "sourcePath": "C:\\Users\\yash\\Desktop\\Projects\\MangoShake-V1\\contracts\\mangoshake.sol",
  "compiler": {
    "name": "solc",
    "version": "0.8.6+commit.11564f7e.Emscripten.clang"
  },
  "schemaVersion": "3.4.2",
  "updatedAt": "2021-07-31T20:30:54.302Z",
  "devdoc": {
    "kind": "dev",
    "methods": {},
    "version": 1
  },
  "userdoc": {
    "kind": "user",
    "methods": {},
    "version": 1
  }
}